:020000040800F2
:1000000028040020450100089B0100089301000816
:10001000970100088D010008BD02000800000000E3
:100020000000000000000000000000009F01000828
:1000300091010008000000009D010008A1010008D6
:100040005F0100085F0100085F0100085F01000810
:100050005F0100085F0100085F0100085F01000800
:100060005F0100085F0100085F0100085F010008F0
:100070005F0100085F0100085F0100085F010008E0
:100080005F0100085F0100085F0100085F010008D0
:100090005F0100085F0100085F0100085F010008C0
:1000A0005F0100085F0100085F0100085F010008B0
:1000B0005F0100085F0100085F0100085F010008A0
:1000C0005F0100085F0100085F0100085F01000890
:1000D0005F01000811020008210200083102000837
:1000E0005F0100085F0100085F0100085F01000870
:1000F0005F0100085F0100085F0100085F01000860
:100100005F0100085F0100085F0100085F0100084F
:100110005F0100085F0100085F0100085F0100083F
:100120005F0100085F0100085F0100085F0100082F
:10013000DFF80CD000F018F8004800475F04000812
:10014000280400200648804706480047FEE7FEE7EF
:10015000FEE7FEE7FEE7FEE7FEE7FEE7FEE7FEE777
:10016000A501000831010008064C074D06E0E068D3
:1001700040F0010394E8070098471034AC42F6D3EE
:10018000FFF7DAFF640400088404000800BFFEE7FC
:10019000704700BFFEE700BFFEE77047704770473B
:1001A0007047000010B51648006840F0010014497F
:1001B00008600846406813490840114948600846ED
:1001C0000068114908400E4908600846006820F49C
:1001D000802008600846406820F4FE004860084619
:1001E000006820F0A05008604FF47F008860002075
:1001F000C86200F065F84FF000600449086010BD67
:10020000001002400000FFF0FFFFF6FE08ED00E0E6
:1002100010B50248006800F0EFF810BD180000208B
:1002200010B50248006800F0E7F810BD1C0000207F
:1002300010B50248006800F0DFF810BD2000002073
:1002400010B50022002340F66A14A14200D100BF7D
:100250000A1201249440A3B2DC43048010BD70B59F
:100260000246002400230025002040F66A16B14211
:1002700000D100BFC1F3421501F01F03012606FAA9
:1002800003F3012D02D19689334006E0022D02D1FD
:10029000168A334001E0968A33400C12012606FA92
:1002A00004F41688344013B10CB1012000E00020A2
:1002B00070BD01468888C0F30800704700BFFEE7A4
:1002C00010B500F001F810BD0CB5002001900090B1
:1002D0003F48006840F480303D49086000BF3C481A
:1002E000006800F4003000900198401C01900098D4
:1002F00018B90198B0F5A06FF1D13548006800F445
:10030000003010B10120009001E000200090009822
:1003100001285CD12F48006840F010002D4908608A
:100320000846006820F0030008600846006840F0B6
:100330000200086026484068254948600846406831
:1003400048600846406840F4806048600846C06ADB
:10035000214908401E49C8620846C06A1F4908432F
:100360001B49C8620846006840F08060086000BF12
:100370001748006800F000600028F9D01448406871
:1003800020F47C10124948600846406840F4E810A8
:1003900048600846006840F08070086000BF0C4864
:1003A000006800F000700028F9D00948406820F08B
:1003B0000300074948600846406840F00200486072
:1003C00000BF0348406800F00C000828F9D10CBDBC
:1003D000001002400020024000F0FEFF4406010031
:1003E00090F840305B1C03F03F02436C934202D014
:1003F000036CC1540264704770B5044694F8481009
:100400000E4A52F8210040F22551FFF728FFA0B113
:1004100094F84810094A52F82100FFF74AFFC5B284
:1004200029462046FFF7DCFF94F84810034A52F8AB
:10043000210040F22551FFF703FF70BD00000020AE
:1004400002E008C8121F08C1002AFAD1704770479D
:10045000002001E001C1121F002AFBD170470020DB
:100460007047000084040008000000202400000001
:1004700040040008A8040008240000200404000030
:10048000500400080038014000440040004800408B
:100490000008014000080140000C0140000000007D
:0804A000000000000000000054
:0400000508000131BD
:00000001FF
