:020000040800F2
:10000000881000204D0100085D0400085504000818
:10001000590400081F0300082B0900080000000015
:10002000000000000000000000000000A106000821
:100030002303000800000000D1040008A506000802
:1000400067010008670100086701000867010008F0
:1000500067010008670100086701000867010008E0
:1000600067010008670100086701000867010008D0
:1000700067010008670100086701000867010008C0
:1000800067010008670100086701000867010008B0
:1000900067010008670100086701000867010008A0
:1000A0006701000867010008670100086701000890
:1000B0006701000867010008670100086701000880
:1000C0006701000867010008670100086701000870
:1000D00067010008210700083107000841070008F0
:1000E0006701000867010008670100086701000850
:1000F0006701000867010008670100086701000840
:10010000670100086701000867010008670100082F
:10011000670100086701000867010008670100081F
:10012000670100086701000867010008670100080F
:10013000DFF814D000F0E0F800F046F8004800477F
:10014000B51B000800F07FF88810002006488047A3
:1001500006480047FEE7FEE7FEE7FEE7FEE7FEE7AC
:10016000FEE7FEE7FEE7FEE7B506000831010008FE
:1001700040EA01039B0703D009E008C9121F08C029
:10018000042AFAD203E011F8013B00F8013B521EA9
:10019000F9D27047D2B201E000F8012B491EFBD220
:1001A00070470022F6E710B513460A460446194682
:1001B000FFF7F0FF204610BD421C10F8011B00297C
:1001C000FBD1801A7047000070B5054C054D03E067
:1001D000206820448047241DAC42F9D170BD000046
:1001E000C0250008C42500082DE9F0410746154642
:1001F0000E46102001F020FC04000AD06760C4E91C
:10020000026500F01BF80168216004600020BDE871
:10021000F0810120FBE7C10F80EAE0700844CA07C3
:100220009623002100F039B8002801DBC0F100401E
:10023000002901DBC1F1004181427047004870474D
:100240004800002070472DE9F0410646FFF7F6FF11
:100250008046454613E016B1E068B0420ED12068F2
:100260002860D4E90101D8F800708847204601F0E1
:10027000B5FBD8F80000B842EBD100E025462C6869
:10028000002CE8D1BDE8F0810029A8BF7047401CD0
:10029000490008BF20F00100704710B4B0FA80FC9C
:1002A00000FA0CF050EA010404BF10BC704749B1D9
:1002B000CCF1200421FA04F411FA0CF118BF012149
:1002C00021430843A3EB0C01CB1D4FEA00614FEA29
:1002D000102042BF002010BC704700EBC3501044F8
:1002E0000029A4BF10BC7047401C490008BF20F083
:1002F000010010BC70470000064C074D06E0E068A6
:1003000040F0010394E8070098471034AC42F6D35C
:10031000FFF712FFA0250008C0250008704700BFA6
:10032000FEE770472DE9F041024600250026002037
:1003300000230024002791F803C00CF00F0591F86A
:1003400003C00CF0100CBCF1000F03D091F802C0F8
:100350004CEA050591F800C0BCF1000F31D01468DB
:1003600000202BE04FF0010C0CFA00F3B1F800C0B4
:100370000CEA03069E4220D183004FF00F0C0CFACA
:1003800003F7BC4305FA03FC4CEA040491F803C0EC
:10039000BCF1280F06D14FF0010C0CFA00FCC2F89A
:1003A00014C00AE091F803C0BCF1480F05D14FF02A
:1003B000010C0CFA00FCC2F810C0401C0828D1D374
:1003C0001460B1F800C0BCF1FF0F34DD54680020A8
:1003D0002EE000F1080C4FF0010808FA0CF3B1F818
:1003E00000C00CEA03069E4221D183004FF00F0C9F
:1003F0000CFA03F7BC4305FA03FC4CEA040491F839
:1004000003C0BCF1280F05D100F1080C08FA0CF864
:10041000C2F8148091F803C0BCF1480F07D100F175
:10042000080C4FF0010808FA0CF8C2F81080401CC4
:100430000828CED35460BDE8F081024600209368BE
:100440000B400BB1012000E0002070474161704774
:100450000161704700BFFEE700BFFEE77047000084
:1004600070B5002100230F22C47804B3154C246812
:1004700004F4E064C4F5E064210AC1F10403CA4055
:10048000447804FA03F184781440214309010E4CA6
:100490000678A155047804F01F050124AC400578C6
:1004A0006D11AD0005F1E025C5F8004109E00478C3
:1004B00004F01F050124AC40044D0678761145F880
:1004C000264070BD0CED00E000E400E080E100E0BB
:1004D0007047000029B1064AD2690243044BDA6131
:1004E00004E0034AD2698243014BDA61704700009D
:1004F0000010024029B1064A92690243044B9A61F6
:1005000004E0034A92698243014B9A6170470000FC
:10051000001002402DE9F0410021002200250023B7
:100520000026002400278C46DFF86081D8F804807C
:1005300008F00C0121B1042907D0082959D109E09C
:10054000DFF84C81C0F8008058E0DFF84481C0F843
:10055000008053E0DFF83481D8F8048008F470128A
:10056000DFF82881D8F8048008F48035920C0D2A31
:1005700001D0921C00E0062235B9DFF8188102FB99
:1005800008F8C0F8008033E0DFF80081D8F82C804C
:1005900008F48036DFF8F480D8F82C8008F00F08D3
:1005A00008F1010446B9DFF8E880B8FBF4F808FB6D
:1005B00002F8C0F800801BE0DFF8D080D8F82C806B
:1005C000C8F3031808F10107DFF8C080D8F82C80C1
:1005D000C8F3032808F1020CDFF8B480B8FBF7F881
:1005E00008FB0CF8B8FBF4F808FB02F8C0F8008030
:1005F00004E0DFF89C80C0F8008000BF00BFDFF897
:100600008C80D8F8048008F0F0010909DFF88880B0
:1006100018F80130D0F8008028FA03F8C0F80480F8
:10062000DFF86880D8F8048008F4E061090ADFF890
:10063000688018F80130D0F8048028FA03F8C0F870
:100640000880DFF84880D8F8048008F46051C90AAF
:10065000DFF8448018F80130D0F8048028FA03F855
:10066000C0F80C80DFF82480D8F8048008F44041FA
:10067000890BDFF8288018F80130D0F80C80B8FB1F
:10068000F3F8C0F81080BDE8F081000000100240CF
:1006900000127A0000093D00000000201000002038
:1006A0007047000002480068401C0149086070471C
:1006B0003C00002010B51648006840F001001449C5
:1006C00008600846406813490840114948600846D8
:1006D0000068114908400E4908600846006820F487
:1006E000802008600846406820F4FE004860084604
:1006F000006820F0A05008604FF47F008860002060
:10070000C86200F014F94FF000600449086010BDA1
:10071000001002400000FFF0FFFFF6FE08ED00E0D1
:1007200010B50248006800F00DFA10BD300000203E
:1007300010B50248006800F005FA10BD3400002032
:1007400010B50248006800F0FDF910BD3800002027
:1007500010B50022002340F66A14A14200D100BF68
:100760000A1201249440A3B2DC43048010BD21B1DD
:10077000828942F40052828104E082894DF6FF733F
:100780001A408281704702460020B1F5007F00D1F7
:1007900000BF13880B400BB1012000E00020704720
:1007A00070B50246002400230025002040F66A169A
:1007B000B14200D100BFC1F3421501F01F03012671
:1007C00006FA03F3012D02D19689334006E0022D8B
:1007D00002D1168A334001E0968A33400C1201267A
:1007E00006FA04F41688344013B10CB1012000E07D
:1007F000002070BDF0B5034600240026002500202F
:1008000040F66A17B94200D100BF1846C1F342143E
:1008100001F01F06012707FA06F5012C01D10C3063
:1008200004E0022C01D1103000E014301AB1076846
:100830002F43076002E00768AF430760F0BD000088
:100840002DE9F04786B005460E460024A24600BFBB
:10085000A1460027B08900B100BF2F462C8A4CF674
:10086000FF700440F08804432C82AC894EF6F310EC
:100870000440B08831890843718908430443AC813E
:10088000AC8A4FF6FF400440B0890443AC8201A813
:10089000FFF740FE1F48874202D1DDF810A001E0BB
:1008A000DDF80CA0A88900F4004040B10AEBCA00B2
:1008B00000EB0A1031684900B0FBF1F807E00AEBE1
:1008C000CA0000EB0A1031688900B0FBF1F864201F
:1008D000B8FBF0F004012009642101FB1089A8890C
:1008E00000F4004040B1322000EBC900B0FBF1F051
:1008F00000F00700044308E0322000EB09106421F7
:10090000B0FBF1F000F00F0004432C8106B0BDE80D
:10091000F08700000038014001468888C0F30800D5
:100920007047C1F308028280704700BFFEE710B530
:1009300000F01EF810BD000010B50A48007878B12C
:10094000094800F0EEFA084800F040FB0649103173
:10095000064800F0EFF804490448103800F0EAF8BF
:1009600010BD00001400002098000020600A002044
:100970000CB50020019000903F48006840F48030A2
:100980003D49086000BF3C48006800F4003000901A
:100990000198401C0190009818B90198B0F5A06F1B
:1009A000F1D13548006800F4003010B1012000900A
:1009B00001E000200090009801285CD12F480068D9
:1009C00040F010002D4908600846006820F0030040
:1009D00008600846006840F0020008602648406849
:1009E000254948600846406848600846406840F429
:1009F000806048600846C06A214908401E49C862B4
:100A00000846C06A1F4908431B49C8620846006877
:100A100040F08060086000BF1748006800F0006088
:100A20000028F9D01448406820F47C10124948602E
:100A30000846406840F4E81048600846006840F006
:100A40008070086000BF0C48006800F0007000284B
:100A5000F9D00948406820F003000749486008467B
:100A6000406840F00200486000BF0348406800F062
:100A70000C000828F9D10CBD0010024000200240F3
:100A800000F0FEFF1408010010B5084800F0FDFA60
:100A9000074908700846007818B906A1094801F00E
:100AA00029FA00200849087010BD000098000020B5
:100AB00014000020494D55204E4F5420464F554EAE
:100AC000442100001C0100201500002090F8403057
:100AD0005B1C03F03F02436C934202D0036CC15491
:100AE0000264704710B5044640212046FFF759FBC9
:100AF000002020646064204610BD10B5044601F05B
:100B0000A9F810BD014601487047000040240008C4
:100B100001460148704700006124000810B50446F2
:100B2000204600F007FB044601482060204610BD27
:100B3000782300084A6842608A688260CA68C26096
:100B40007047000070B5044694F848100E4A52F8F9
:100B5000210040F22551FFF723FEA0B194F8481080
:100B6000094A52F82100FFF7D7FEC5B229462046B0
:100B7000FFF7ACFF94F84810034A52F8210040F206
:100B80002551FFF7E5FD70BD180000200146D1E9B1
:100B90001003984201D1FF207047486C0A5C91F81D
:100BA0004400401C00F03F0048641046F4E7000099
:100BB00030B587B004460D4694F8480078B994F8EB
:100BC00048103F4A52F8211094F848203D4B53F802
:100BD000222041EA02000121FFF78CFC0FE094F88B
:100BE0004810374A52F821000121FFF773FC94F8AE
:100BF0004810344A52F821000121FFF77BFC14F819
:100C0000480F314931F81000ADF8180003208DF875
:100C10001A0018208DF81B0021782C4A52F8210068
:100C200006A9FFF77FFB2078294931F81000ADF8BD
:100C3000180004208DF81B002178244A52F8210066
:100C400006A9FFF76FFB02950020ADF80C00ADF888
:100C50000E00ADF81000ADF814000C20ADF8120035
:100C600021781C4A52F8210002A9FFF7E9FD2078FB
:100C7000194911F810008DF8040000208DF80500C6
:100C80002078164911F810008DF8060001208DF823
:100C9000070001A8FFF7E4FB21780E4A52F8210073
:100CA000012240F22551FFF7A5FD14F84819094A21
:100CB00052F821000121FFF75AFD07B030BD0000B6
:100CC000202300082C2300083823000824000020DB
:100CD0003E23000818000020442300084A2300088F
:100CE00070B504460D4694F84810094A52F82100A0
:100CF0002946FFF716FE00BF94F84810044A52F840
:100D000021008021FFF73FFD0028F5D0012070BDB4
:100D100018000020014691F8400091F84420801A04
:100D200000F03F007047000070B504460D462046B5
:100D3000FFF7D8FE044684F8485094F8480008B9F4
:100D40000748046094F84800012801D10548046070
:100D500094F84800022801D103480460204670BD81
:100D600030000020340000203800002070472DE9BA
:100D7000F84304460E46002528466D1C16F80090E0
:100D80002079484505DA4FEA8901E06800F068FFFC
:100D9000E060ED1C84F80490002020E00021009128
:100DA000725D00991143009172195278009941EADD
:100DB0000221009172199278009941EA0241009152
:100DC0007219D278009941EA026100910099A160FC
:100DD0002D1DD4E9022141F82020411CC8B22179FF
:100DE0008142DBDC28466D1C375C207CB84204DA8B
:100DF000B900A06900F034FFA061ED1C2774002049
:100E000020E000210091725D009911430091721958
:100E10005278009941EA0221009172199278009962
:100E200041EA024100917219D278009941EA0261C7
:100E30000091009961612D1DD4E9052141F8202020
:100E4000411CC8B2217C8142DBDC28466D1C16F8AF
:100E50000080207F404505DA4FEA8801606A00F093
:100E6000FFFE6062ED1C84F81C8000211BE07019FD
:100E700002682D1D284605E016F800C0431E06F83E
:100E800003C0401CAB188342F6D80023A818401EAC
:100E900033547019401E20621544D4E9083040F8DC
:100EA0002130481CC1B2207F8842E0DC2846BDE8E2
:100EB000F8830000014601487047000077240008CD
:100EC000014601487047000004230008014601481C
:100ED0007047000098240008014601487047000050
:100EE000B92400080146014870470000CC240008DE
:100EF0000146014870470000ED24000870B5044623
:100F00000E461546314604F12C0000F0D3FA29466E
:100F100004F12C0000F000FB04F12C0000F0ACFA0E
:100F200070BD70B5044600254322D0212046FFF74E
:100F3000E5FF0622D02104F12C0000F093FA08E02E
:100F400004F12C0000F0BEFA04F120014855681CA1
:100F5000C5B204F12C0000F0F5FA0028F0D12121EF
:100F6000095D94F8202041EA0220FFF754F96061FE
:100F700023210A5D2221095D42EA0120FFF74BF996
:100F8000A06125210A5D2421095D42EA0120FFF7C5
:100F900042F9E06170BD2DE9F04104460F46154667
:100FA0001E46394604F12C0000F084FA294604F16B
:100FB0002C0000F0B1FA314604F12C0000F0ACFA3C
:100FC00004F12C0000F058FABDE8F08170B5044639
:100FD00000254322D0212046FFF790FF0622D02192
:100FE00004F12C0000F03EFA08E004F12C0000F0BF
:100FF00069FA04F126014855681CC5B204F12C00B9
:1010000000F0A0FA0028F0D12721095D94F82620ED
:1010100041EA0220FFF7FFF8606029210A5D2821DC
:10102000095D42EA0120FFF7F6F8A0602B210A5D76
:101030002A21095D42EA0120FFF7EDF8E06070BD6A
:1010400010B50446002104F12C0000F0EDF810BDAD
:1010500070B504460E461546314604F12C0000F0EA
:1010600029FA294604F12C0000F056FA04F12C006C
:1010700000F002FA0122314604F12C0000F0F2F9EE
:1010800004F12C0000F01EFA70BD70B50646752202
:10109000D0213046FFF7DCFF68282DD1002408E07E
:1010A000002501E0681C85B2B5F57A7FFADB601C8B
:1010B00084B2B4F57A7FF3DB00236B22D021304673
:1010C000FFF769FF07231922D0213046FFF763FF9E
:1010D00006231A22D0213046FFF75DFF00231C2291
:1010E000D0213046FFF757FF18231B22D02130466E
:1010F000FFF751FF012070BD0020FCE710B504464A
:1011000004F12C0000F08AF9A0F12C04204610BD57
:1011100070B5074D0C68B4FBF5F605FB16430C687B
:10112000B4FBF5F20468144404600B6070BD000069
:1011300000CA9A3B01490160704700000024000882
:1011400070B504460021204600F0FAF8012120463F
:1011500000F012F90121204600F0F2F8204600F0DC
:1011600037F980F001050021204600F0E9F8284613
:1011700070BD10B504460021204600F0FDF80121A5
:10118000204600F0DDF80021204600F0D9F810BD1F
:1011900070B5064600250121304600F0EDF8002428
:1011A00010E00121304600F0CBF8304600F010F995
:1011B000C4F1070188402843C5B20021304600F041
:1011C000BFF8641C082CECDB284670BD10B5044643
:1011D0000121204600F0D0F80121204600F0B0F8AF
:1011E0000021204600F0ACF810BD70B506460D4653
:1011F000002415E0C4F1070201209040284008B106
:10120000012000E000200146304600F0B5F8012141
:10121000304600F095F80021304600F091F8641C4B
:10122000082CE7DB70BD000038B504460D460121EF
:101230000820FFF75FF98020ADF8000003208DF84B
:10124000020014208DF8030069461148FFF76AF880
:101250004020ADF8000003208DF8020014208DF826
:10126000030069460A48FFF75DF8002084F8520041
:1012700084F8530084F8300084F8310001212046BE
:1012800000F05EF80121204600F076F838BD00003D
:10129000000C014070B504460021618120794006B0
:1012A000060EE088012801D146F00106204600F034
:1012B0009DF831462046FFF798FF2046FFF740FF94
:1012C00020B9204600F074F8022070BDE0880128A3
:1012D00018D112E02046FFF75BFF6289511C618143
:1012E000E168885461892089814203DA2046FFF74A
:1012F00040FF02E02046FFF769FF618920898142B3
:10130000E8DB17E0002512E0E068415D2046FFF7CA
:101310006CFF2046FFF714FF20B9204600F048F884
:101320000320D2E76089401C6081681CC5B2208917
:10133000A842E9DC204600F03BF80020C5E70000A9
:1013400070B505460C4600BF002001E000BF401C00
:1013500095F854108142F9DC00BF012C03D14021E3
:101360000448FFF775F81CB940210248FFF76EF8F2
:1013700070BD0000000C014070B505460C4600BF72
:10138000002001E000BF401C95F854108142F9DCB8
:1013900000BF012C03D180210448FFF759F81CB984
:1013A00080210248FFF752F870BD0000000C014098
:1013B00010B5044600212046FFF7DEFF012120463C
:1013C000FFF7BEFF01212046FFF7D6FF10BD00004A
:1013D00010B5044680210448FFF72FF808B101201A
:1013E00010BD0020FCE70000000C014010B50446D1
:1013F00000212046FFF7C0FF00212046FFF7A0FF95
:1014000010BD0000034A026000BF034A026080F87A
:1014100054107047682300085823000800BF00BF1D
:1014200000BF704770B504460E461546202D00DDFE
:101430002025A6800121E180258194F8301004F157
:1014400010000144E160206801682046884794F854
:101450003110A07A084484F831000021E18094F82A
:10146000310070BD70B505460C461646E1B23246F5
:101470002846FFF7D7FF70BD70B5044694F85300B7
:1014800008B1012070BD20680168204688470546E4
:10149000002084F8520084F853002846F2E7818047
:1014A00090F8523000F132021344C36000230381EC
:1014B000C380704730B505460C46E1B22846FFF7B9
:1014C000EEFF30BD014691F8300091F83120904296
:1014D00005D1002081F8300081F83100704791F883
:1014E000302091F83100401E82420AD191F830300C
:1014F00001F11002D05C002281F8302081F8312007
:10150000ECE700BF11F8302F0878401C01F83009D3
:1015100001F11000805CE1E790F85220202A03D10D
:10152000012280F85320704710F8523F0278521C75
:1015300000F8522900F13202D1540289521C028172
:1015400000BFF0E7014691F8310091F83020801A91
:10155000C0B2704710B5024600200B5C53600C18F7
:101560006478536843EA042353600C18A4785368E2
:1015700043EA044353600C18E478536843EA046375
:101580005360001D0C5C94600C186478936843EA07
:10159000042494600C18A478936843EA044494608B
:1015A0000C18E478936843EA04649460001D10BD4D
:1015B00001460148704700003F25000801460148E8
:1015C000704700006025000810B504462046FFF76C
:1015D000B1FD044604482060201D002101604160E7
:1015E00000BF041F204610BD182400080146014812
:1015F000704700006E250008014601487047000052
:101600008F2500082DE9FF5F06460C460025301D9A
:10161000039003980068C0F3C7500290029818B175
:10162000029800F56070029003980768002228462F
:101630006D1C225428466D1C225428466D1C2254D1
:101640007807020E28466D1C2254C7F3C7022846AD
:101650006D1C2254C7F3C72228466D1C2254F0216A
:10166000029801EA0010C7F3C341084329466D1CE4
:1016700060540298C0F3061228466D1C22540021C3
:101680007068FEF7D1FD07D2601910F8010C40F028
:101690008000611901F8010C06F108000190019821
:1016A0000068C0F3C758B8F1000F01D008F56078A2
:1016B0000198D0F80090002228466D1C225428463C
:1016C0006D1C225428466D1C22544FEA4970020EAC
:1016D00028466D1C2254C9F3C70228466D1C2254AB
:1016E000C9F3C72229466D1C6254F02000EA081095
:1016F000C9F3C341084329466D1C6054C8F3061260
:1017000028466D1C22540021B068FEF78DFD07D2DB
:10171000601910F8010C40F08000611901F8010C0B
:1017200006F10C00009000980068C0F3C75ABAF1A7
:10173000000F01D00AF5607A0098D0F800B00022BE
:1017400028466D1C225428466D1C225428466D1CC8
:1017500022544FEA4B70020E28466D1C2254CBF3E4
:10176000C70229466D1C6254CBF3C72228466D1C64
:101770002254F02000EA0A10CBF3C3410843294663
:101780006D1C6054CAF3061228466D1C22540021B9
:10179000F068FEF749FD07D2601910F8010C40F01F
:1017A0008000611901F8010C284604B0BDE8F09FE3
:1017B0002DE9F84306460D46002432792046641C84
:1017C0002A5400222146641C6A542046641C2A5470
:1017D0002046641C2A54002014E0F16851F82010BF
:1017E0000091009929550099090A2A195170009908
:1017F000090C2A1991700099090E2A19D170241D1B
:10180000411CC8B231798142E7DC327C2046641C3D
:101810002A5400222146641C6A542046641C2A541F
:101820002046641C2A54002014E0B16951F82010AD
:101830000091009929550099090A2A1951700099B7
:10184000090C2A1991700099090E2A19D170241DCA
:10185000411CC8B2317C8142E7DC327F2046641CE7
:101860002A5400222046641C2A542046641C2A5410
:101870002146641C6A54002713E0716A51F827005E
:10188000FEF79AFC80462819C0F80080241D726A71
:1018900052F8271028194246FEF76AFC4444781C87
:1018A000C7B2307FB842E8DC2046BDE8F8832DE9B6
:1018B000F04105460E46002428793055641CA8687E
:1018C000FEF77AFC074630190760241D30193A46A6
:1018D000A968FEF74DFC3C442046BDE8F0812DE9A7
:1018E000F84306460D46002430792855B088000A92
:1018F00029194870A41CB068FEF75EFC0746281939
:101900000760241D28193A46B168FEF731FC3C44B3
:10191000F068FEF751FC80462819C0F80080241DAD
:1019200028194246F168FEF723FC44443069FEF76B
:1019300043FC81462819C0F80090241D28194A4606
:101940003169FEF715FC4C447069009000982855E9
:101950000098000A291948700098000C291988700D
:101960000098000E2919C870241D2046BDE8F88390
:1019700010B50246002013790B5493881B0A0C18EB
:10198000637053681B0C0C18A37053681B0E0C1863
:10199000E370001D137A0B5413891B0A0C18637033
:1019A00093681B0C0C18A37093681B0E0C18E37043
:1019B000001D10BD70B505460E4600243119281DC6
:1019C000FFF720FE0444311905F11400FFF71AFE59
:1019D0000444204670BD0020FEF734BC30B528B169
:1019E000144C031F002021680A4605E0084630BD5C
:1019F0009A4203D810465268002AF9D1002800D034
:101A000041680BD00468A3EB0005A54204D11B6814
:101A10001C440346046002E0436000E023603AB1E6
:101A20001C68D51AA54203D115682C441C60526865
:101A30005A6030BD400000202DE9F04782460F4C2F
:101A400010480D4E0E4F001B4FF0000820F0070508
:101A50004FF0010900221146504600F083F800289B
:101A600002D1306810B10020BDE8F0873C60C4E9C5
:101A70000058C6F80090EDE7440000208C0A0020D2
:101A800040000020880C002002E008C8121F08C196
:101A9000002AFAD170477047002001E001C1121FEF
:101AA000002AFBD17047000070B500212248FFF7E3
:101AB0003BF90446214A2249FEF796FB214C204679
:101AC000FFF72CF804461030FFF728F8A0F11004B7
:101AD00000211C30FFF796FCA0F12C05174A1A498B
:101AE0002846FEF781FB194800F0AEFB184C204653
:101AF000FFF720FB04461748206000206060A060CC
:101B0000E0602061201DFFF709F8041F00206061DC
:101B1000A061E061206204F11400FEF7FFFFA0F174
:101B2000140400BF0C480DA1094A00230160426063
:101B3000036100BF70BD00004C00002000000008E1
:101B40006D0D000898000020FD1000081C01002009
:101B50004C0A002030240008700A00207261775F70
:101B6000696D75002DE9F0410B3020F00706104D2E
:101B700019E02068B04215D3B0420AD9871B201D56
:101B8000D4F80480FEF7F4FAA019C0E900782860C0
:101B900004E060682860201DFEF7EAFA201D266038
:101BA000BDE8F081251D2C68002CE2D10020F7E76C
:101BB0004000002000242348FFF742FA00BF00BF86
:101BC000214A91685068FEF7F3FF00BF00201E49CC
:101BD000C1F8E008C1F8E408C1F8EC08C1F8E80869
:101BE00000BF1A4A00BF0EE001F6180353F8203078
:101BF00043B901F6180343F8202000F17D039360F8
:101C0000D16003E0401C1928EEDB00BF02E00E4863
:101C100000F088F900BF0C4890F8F4080028F6D0CE
:101C20000FE000F017F8001B14280AD308480078CA
:101C300010B1FEF729FF01E0FEF77EFE00F00AF882
:101C40000446EEE7980000201C010020700A0020E6
:101C50001500002001480068704700003C0000208B
:101C60002DE9F04704008A4616D054F8047CD4F8D5
:101C700000903E1F564500D956462046FFF7AEFE5F
:101C800005468846324621465046FFF76BFF40B175
:101C9000C0F80090BDE8F087BDE8F0470846FFF7C0
:101CA000CBBE44E9017955B129686A18211F8A42DF
:101CB00002D9611B091F2960C5F80480EAE7024ABE
:101CC000C2F80080E6E700004000002070B586B052
:101CD00004466E463046FFF72DFA0646434830600C
:101CE00000253DE004F6180050F82500B8B304F6CE
:101CF000180050F82500008980B2ADF8040004F601
:101D0000180050F825000068029004F6180252F8F6
:101D10002520506804F6180252F8252052681268EF
:101D200091688847039004F6180252F825205068FD
:101D300004F6180252F8252052681268D1688847C4
:101D400004904FF48060059004F6180151F82500C6
:101D500001690E4620686A460368204698476D1C54
:101D6000192DBFDB00253AE004F67C0050F8250071
:101D7000A0B304F67C0050F82500808880B2ADF84E
:101D8000040004F67C0050F825008068029004F6F8
:101D90007C0252F8250052F8252012689168884785
:101DA000039004F67C0252F8250052F825201268B0
:101DB000D168884704904FF48060059004F67C0257
:101DC00052F8250052F825201268516888470646C7
:101DD00020686A4631460368204698476D1C192DD5
:101DE000C2DB012084F8F40806B070BDC0230008EF
:101DF0003EB504466846FFF7E7FB20686A460A21BD
:101E0000036820469847201DFEF777FEE0603EBD40
:101E10002DE9F05F04460F469046642F05DB94F8E9
:101E2000F40810B90020BDE8F09FD8F8000004F2D3
:101E30001F410268404690470546FF2084F8180479
:101E4000FE2140F219400155401C0555C5F30721FC
:101E5000401C0155411E0A5D0146095D5018C1171D
:101E600000EB11610912A0EB0121C1F1FF01CAB21F
:101E700040F21C410A55481C0755C7F30721401C76
:101E800001550026052004E004F58361095C0E4439
:101E9000401CE91D8842F7D3ED1D3046F11706EBD3
:101EA00011610912A6EB0121C1F1FF01CBB2294654
:101EB0006D1C04F583625354B5F5806F10D89246BB
:101EC000AB464FF0000906E01AF809106068FEF70B
:101ED00007FF09F10109D945F6DB00BF2846A2E753
:101EE0000349204600F006F84FF0FF309BE7000062
:101EF00006250008FEB505460C4603266F46384603
:101F0000FFF718F90746064838608DF80460029418
:101F100028686A46072103682846984700BFFEBD27
:101F2000A823000870B50446201DFEF7E6FD06460E
:101F3000D4F8FC08301A42F6F821884202D9002071
:101F400084F8F408D4F8E00830B1D4F80009B042BD
:101F500002D20020C4F8E00812E100BF6068FEF77A
:101F6000D9FE18B16068FEF711FE01E04FF0FF30B6
:101F70000546002D00DA04E1D4F8F0082844C4F83E
:101F8000F008D4F8E008072814D1D4F8EC28501C45
:101F9000C4F8EC0804F118008554D4F8E408401E95
:101FA000C4F8E408D4F8E408002802D10820C4F8F2
:101FB000E008E4E0D4F8E008B0B9FF2D09D1D4F886
:101FC000E008401CC4F8E00806F11400C4F8000959
:101FD000D5E0201DFEF791FD801B0528E9D90020E2
:101FE00084F8F408801E70BDD4F8E008012812D1EE
:101FF000FE2D05D1D4F8E008401CC4F8E008BEE08E
:102000000020C4F8E00894F8F4080028D1D1204654
:10201000FFF7EEFEB3E0D4F8E00802280BD104F598
:102020000E6465600020E0602068401C206025612F
:10203000A4F50E64A3E0D4F8E00803280BD1D4F88B
:10204000E40800EB0520C4F8E408D4F8E008401CDC
:10205000C4F8E00893E0D4F8E008042813D1D4F8D9
:10206000F008C11700EB11610912A0EB0121FF2953
:1020700005D1D4F8E008401CC4F8E0087FE0002057
:10208000C4F8E0087BE0D4F8E008052809D1C4F8DA
:10209000E858D4F8E008401CC4F8E008C4F8F05848
:1020A0006DE0D4F8E00806280FD1D4F8E80800EB7A
:1020B0000520C4F8E8080720C4F8E008D4F8E408CC
:1020C00068BB0820C4F8E00859E0D4F8E008082804
:1020D00055D10020C4F8E008D4F8F008C11700EB8F
:1020E00011610912A0EB0121FF2948D1D4F8E808B9
:1020F00060B92046FFF77CFE2046FFF7E7FDC4F8F5
:10210000F868C4F8FC684FF0FF306CE7D4F8E808D2
:102110000A2805D104F11801204600F045F82EE008
:10212000D4F8E808062809D104F1180104F60810CB
:10213000FEF71DFE012084F8040920E0D4F8E80829
:102140000B2803D1002084F8F40818E0D4F8E8083C
:10215000643804F67C0151F8200080B1D4F8E81806
:10216000643904F67C0353F82100D4F8E818643984
:1021700053F8211009680A6804F11801904700BF5C
:10218000EBE600BF94F8F40858B1D4F8F808301A18
:1021900040F6C411884204D92046FFF729FEC4F84E
:1021A000F86800201FE700002DE9FE43044688463A
:1021B0006846FFF709FA201DFEF79FFCE168461A02
:1021C00041466846FFF7C6F94FF47A70B6FBF0F067
:1021D0000199084401904FF47A70B6FBF0F100FBCE
:1021E000116043F609514843029901EB80110291B5
:1021F00001AD201DFEF781FC07464FF47A70B7FB56
:10220000F0F02968081A401E20614FF47A70B7FB7D
:10221000F0F100FB117043F6095148436968A1EBE6
:10222000801008490844606104F11401081FFEF79A
:102230006FFF00BF201DFEF760FCC4F8FC08BDE87E
:10224000FE83000000CA9A3B70B5044629492A481B
:102250002060201D294901604FF46141416000BFA9
:10226000041F002084F8F40804F608152846FEF739
:1022700061FF05462248A5F608142860002005E005
:10228000002204F6180141F82020401C1928F7D339
:10229000002005E0002204F67C0141F82020401CCB
:1022A0001928F7D3002004E0002204F118010A5491
:1022B000401CB0F5806FF7D3002004E0002204F545
:1022C00083610A54401CB0F5806FF7D3002140F6BB
:1022D0000C10015540F614100151001D01554FF42A
:1022E0001260015140F60C10015540F614100151D6
:1022F000204670BDEC230008D82300084C000020C5
:1023000090230008726F7373657269616C5F6D73FF
:1023100067732F52657175657374506172616D00DA
:102320000040000000000200000004000400000063
:102330000400000008000000000204000004000483
:102340000800080025002600270001000200030005
:10235000000000000000000095120008291200088B
:102360000000000000000000D71900080000000075
:10237000000000000000000005160008000000003A
:10238000110B0008050B0008000000000000000011
:10239000B11700086F0D0008C10E0008B50E000847
:1023A0000000000000000000AF180008000000005E
:1023B000D90E0008CD0E000800000000000000004B
:1023C000DF18000800000000F10E0008E50E00080C
:1023D0000000000000000000111E0008251F00087A
:1023E000000000000000000000000000D7190008F5
:1023F000D7190008D71900080000000000000000ED
:10240000D7190008D7190008D7190008D7190008EC
:1024100000000000000000007119000855150008B8
:10242000BD150008B1150008000000000000000004
:10243000B519000800000000F9150008ED150008A6
:10244000346138343262363566343133303834648E
:1024500063326231306662343834656137663137F1
:102460000067656F6D657472795F6D7367732F5662
:102470006563746F72330039663065393862646140
:1024800036353938313938366464663533616661DA
:10249000376134306534390031316162643733314A
:1024A000633235393333323631636436313833622F
:1024B000643132643632393500726F737365726914
:1024C000616C5F6D7367732F4C6F670030616435AB
:1024D00031663838666334343839326638633130BF
:1024E00036383430373736343630303500726F7323
:1024F00073657269616C5F6D7367732F546F706978
:1025000063496E666F004D6573736167652066721F
:102510006F6D206465766963652064726F707065A5
:10252000643A206D657373616765206C61726765DD
:1025300072207468616E206275666665722E006333
:10254000643731363663373463353532633331318E
:1025500066626363326665356137626332383900BB
:102560007374645F6D7367732F54696D65003237E0
:10257000353131303430356630386531623763306B
:1025800063306631616261336531396336370072B9
:10259000696B695F6D7367732F496D75000000008B
:1025A000C4250008000000204C000000881A000824
:1025B000102600084C0000203C100000981A00086B
:1025C000E9F4FFFF0000000001020304010203041C
:1025D000060708090204060800010000003801404F
:1025E000004400400048004000080140000801404D
:1025F000000C01400000000000000000000000008E
:1026000000000000000000000000000000000000CA
:0400000508000131BD
:00000001FF
